{
  "_format": "hh-sol-artifact-1",
  "contractName": "BusinessRating",
  "sourceName": "contracts/BusinessRating.sol",
  "abi": [
    {
      "anonymous": false,
      "inputs": [
        {
          "indexed": true,
          "internalType": "address",
          "name": "business",
          "type": "address"
        },
        {
          "indexed": false,
          "internalType": "string",
          "name": "name",
          "type": "string"
        }
      ],
      "name": "BusinessRegistered",
      "type": "event"
    },
    {
      "anonymous": false,
      "inputs": [
        {
          "indexed": true,
          "internalType": "address",
          "name": "customer",
          "type": "address"
        },
        {
          "indexed": true,
          "internalType": "address",
          "name": "business",
          "type": "address"
        },
        {
          "indexed": false,
          "internalType": "uint8",
          "name": "score",
          "type": "uint8"
        }
      ],
      "name": "RatingSubmitted",
      "type": "event"
    },
    {
      "anonymous": false,
      "inputs": [
        {
          "indexed": true,
          "internalType": "address",
          "name": "customer",
          "type": "address"
        },
        {
          "indexed": true,
          "internalType": "address",
          "name": "business",
          "type": "address"
        }
      ],
      "name": "TransactionRecorded",
      "type": "event"
    },
    {
      "inputs": [
        {
          "internalType": "address",
          "name": "",
          "type": "address"
        }
      ],
      "name": "businesses",
      "outputs": [
        {
          "internalType": "string",
          "name": "name",
          "type": "string"
        },
        {
          "internalType": "bool",
          "name": "isRegistered",
          "type": "bool"
        },
        {
          "internalType": "uint256",
          "name": "totalRatings",
          "type": "uint256"
        },
        {
          "internalType": "uint256",
          "name": "ratingsCount",
          "type": "uint256"
        }
      ],
      "stateMutability": "view",
      "type": "function"
    },
    {
      "inputs": [
        {
          "internalType": "address",
          "name": "_business",
          "type": "address"
        }
      ],
      "name": "getAverageRating",
      "outputs": [
        {
          "internalType": "uint256",
          "name": "",
          "type": "uint256"
        }
      ],
      "stateMutability": "view",
      "type": "function"
    },
    {
      "inputs": [
        {
          "internalType": "address",
          "name": "_business",
          "type": "address"
        }
      ],
      "name": "getBusinessDetails",
      "outputs": [
        {
          "internalType": "string",
          "name": "name",
          "type": "string"
        },
        {
          "internalType": "uint256",
          "name": "totalRatings",
          "type": "uint256"
        },
        {
          "internalType": "uint256",
          "name": "ratingsCount",
          "type": "uint256"
        }
      ],
      "stateMutability": "view",
      "type": "function"
    },
    {
      "inputs": [
        {
          "internalType": "address",
          "name": "_customer",
          "type": "address"
        },
        {
          "internalType": "address",
          "name": "_business",
          "type": "address"
        },
        {
          "internalType": "uint256",
          "name": "_ratingIndex",
          "type": "uint256"
        }
      ],
      "name": "getRating",
      "outputs": [
        {
          "internalType": "uint8",
          "name": "score",
          "type": "uint8"
        },
        {
          "internalType": "string",
          "name": "comment",
          "type": "string"
        },
        {
          "internalType": "uint256",
          "name": "timestamp",
          "type": "uint256"
        }
      ],
      "stateMutability": "view",
      "type": "function"
    },
    {
      "inputs": [
        {
          "internalType": "address",
          "name": "_customer",
          "type": "address"
        },
        {
          "internalType": "address",
          "name": "_business",
          "type": "address"
        }
      ],
      "name": "getTransactionCount",
      "outputs": [
        {
          "internalType": "uint256",
          "name": "",
          "type": "uint256"
        }
      ],
      "stateMutability": "view",
      "type": "function"
    },
    {
      "inputs": [
        {
          "internalType": "address",
          "name": "",
          "type": "address"
        },
        {
          "internalType": "address",
          "name": "",
          "type": "address"
        },
        {
          "internalType": "uint256",
          "name": "",
          "type": "uint256"
        }
      ],
      "name": "ratings",
      "outputs": [
        {
          "internalType": "address",
          "name": "customer",
          "type": "address"
        },
        {
          "internalType": "address",
          "name": "business",
          "type": "address"
        },
        {
          "internalType": "uint8",
          "name": "score",
          "type": "uint8"
        },
        {
          "internalType": "string",
          "name": "comment",
          "type": "string"
        },
        {
          "internalType": "uint256",
          "name": "timestamp",
          "type": "uint256"
        }
      ],
      "stateMutability": "view",
      "type": "function"
    },
    {
      "inputs": [
        {
          "internalType": "address",
          "name": "_business",
          "type": "address"
        }
      ],
      "name": "recordTransaction",
      "outputs": [],
      "stateMutability": "nonpayable",
      "type": "function"
    },
    {
      "inputs": [
        {
          "internalType": "string",
          "name": "_name",
          "type": "string"
        }
      ],
      "name": "registerBusiness",
      "outputs": [],
      "stateMutability": "nonpayable",
      "type": "function"
    },
    {
      "inputs": [
        {
          "internalType": "address",
          "name": "_business",
          "type": "address"
        },
        {
          "internalType": "uint8",
          "name": "_score",
          "type": "uint8"
        },
        {
          "internalType": "string",
          "name": "_comment",
          "type": "string"
        },
        {
          "internalType": "uint256",
          "name": "_transactionIndex",
          "type": "uint256"
        }
      ],
      "name": "submitRating",
      "outputs": [],
      "stateMutability": "nonpayable",
      "type": "function"
    },
    {
      "inputs": [
        {
          "internalType": "address",
          "name": "",
          "type": "address"
        },
        {
          "internalType": "address",
          "name": "",
          "type": "address"
        },
        {
          "internalType": "uint256",
          "name": "",
          "type": "uint256"
        }
      ],
      "name": "transactions",
      "outputs": [
        {
          "internalType": "address",
          "name": "customer",
          "type": "address"
        },
        {
          "internalType": "address",
          "name": "business",
          "type": "address"
        },
        {
          "internalType": "uint256",
          "name": "timestamp",
          "type": "uint256"
        },
        {
          "internalType": "bool",
          "name": "isRated",
          "type": "bool"
        }
      ],
      "stateMutability": "view",
      "type": "function"
    }
  ],
  "bytecode": "0x608060405234801561001057600080fd5b506120cf806100206000396000f3fe608060405234801561001057600080fd5b506004361061009e5760003560e01c8063aaeff1f011610066578063aaeff1f014610170578063abfbd2dc146101a4578063b31e26e4146101c0578063bc9e2b6d146101f3578063c8b67522146102255761009e565b80631805f951146100a35780635808f5b8146100d357806360e7f7d114610106578063671bf3d714610122578063811f17a614610154575b600080fd5b6100bd60048036038101906100b8919061147a565b610255565b6040516100ca91906114d3565b60405180910390f35b6100ed60048036038101906100e8919061151a565b6102df565b6040516100fd9493929190611597565b60405180910390f35b610120600480360381019061011b9190611722565b610386565b005b61013c6004803603810190610137919061151a565b610517565b60405161014b93929190611806565b60405180910390f35b61016e60048036038101906101699190611870565b61080d565b005b61018a6004803603810190610185919061151a565b610d02565b60405161019b9594939291906118f3565b60405180910390f35b6101be60048036038101906101b9919061194d565b610e37565b005b6101da60048036038101906101d5919061194d565b6110d1565b6040516101ea949392919061197a565b60405180910390f35b61020d6004803603810190610208919061194d565b611196565b60405161021c939291906119c6565b60405180910390f35b61023f600480360381019061023a919061194d565b6112c6565b60405161024c91906114d3565b60405180910390f35b6000600160008473ffffffffffffffffffffffffffffffffffffffff1673ffffffffffffffffffffffffffffffffffffffff16815260200190815260200160002060008373ffffffffffffffffffffffffffffffffffffffff1673ffffffffffffffffffffffffffffffffffffffff16815260200190815260200160002080549050905092915050565b6001602052826000526040600020602052816000526040600020818154811061030757600080fd5b906000526020600020906004020160009250925050508060000160009054906101000a900473ffffffffffffffffffffffffffffffffffffffff16908060010160009054906101000a900473ffffffffffffffffffffffffffffffffffffffff16908060020154908060030160009054906101000a900460ff16905084565b6000803373ffffffffffffffffffffffffffffffffffffffff1673ffffffffffffffffffffffffffffffffffffffff16815260200190815260200160002060010160009054906101000a900460ff1615610415576040517f08c379a000000000000000000000000000000000000000000000000000000000815260040161040c90611a50565b60405180910390fd5b60405180608001604052808281526020016001151581526020016000815260200160008152506000803373ffffffffffffffffffffffffffffffffffffffff1673ffffffffffffffffffffffffffffffffffffffff168152602001908152602001600020600082015181600001908161048e9190611c7c565b5060208201518160010160006101000a81548160ff02191690831515021790555060408201518160020155606082015181600301559050503373ffffffffffffffffffffffffffffffffffffffff167f160d4f1baa5abe6346266de469621d777ce8d4ed54db1ecdeae78b47bad7faa58260405161050c9190611d4e565b60405180910390a250565b60006060600083600260008873ffffffffffffffffffffffffffffffffffffffff1673ffffffffffffffffffffffffffffffffffffffff16815260200190815260200160002060008773ffffffffffffffffffffffffffffffffffffffff1673ffffffffffffffffffffffffffffffffffffffff16815260200190815260200160002080549050116105de576040517f08c379a00000000000000000000000000000000000000000000000000000000081526004016105d590611dbc565b60405180910390fd5b6000600260008873ffffffffffffffffffffffffffffffffffffffff1673ffffffffffffffffffffffffffffffffffffffff16815260200190815260200160002060008773ffffffffffffffffffffffffffffffffffffffff1673ffffffffffffffffffffffffffffffffffffffff168152602001908152602001600020858154811061066e5761066d611ddc565b5b90600052602060002090600402016040518060a00160405290816000820160009054906101000a900473ffffffffffffffffffffffffffffffffffffffff1673ffffffffffffffffffffffffffffffffffffffff1673ffffffffffffffffffffffffffffffffffffffff1681526020016001820160009054906101000a900473ffffffffffffffffffffffffffffffffffffffff1673ffffffffffffffffffffffffffffffffffffffff1673ffffffffffffffffffffffffffffffffffffffff1681526020016001820160149054906101000a900460ff1660ff1660ff16815260200160028201805461076090611a9f565b80601f016020809104026020016040519081016040528092919081815260200182805461078c90611a9f565b80156107d95780601f106107ae576101008083540402835291602001916107d9565b820191906000526020600020905b8154815290600101906020018083116107bc57829003601f168201915b5050505050815260200160038201548152505090508060400151816060015182608001519350935093505093509350939050565b6000808573ffffffffffffffffffffffffffffffffffffffff1673ffffffffffffffffffffffffffffffffffffffff16815260200190815260200160002060010160009054906101000a900460ff1661089b576040517f08c379a000000000000000000000000000000000000000000000000000000000815260040161089290611e57565b60405180910390fd5b60018360ff16101580156108b3575060058360ff1611155b6108f2576040517f08c379a00000000000000000000000000000000000000000000000000000000081526004016108e990611ec3565b60405180910390fd5b6000600160003373ffffffffffffffffffffffffffffffffffffffff1673ffffffffffffffffffffffffffffffffffffffff16815260200190815260200160002060008673ffffffffffffffffffffffffffffffffffffffff1673ffffffffffffffffffffffffffffffffffffffff1681526020019081526020016000209050818180549050116109b8576040517f08c379a00000000000000000000000000000000000000000000000000000000081526004016109af90611f2f565b60405180910390fd5b60008183815481106109cd576109cc611ddc565b5b906000526020600020906004020190508060030160009054906101000a900460ff1615610a2f576040517f08c379a0000000000000000000000000000000000000000000000000000000008152600401610a2690611f9b565b60405180910390fd5b60018160030160006101000a81548160ff021916908315150217905550600260003373ffffffffffffffffffffffffffffffffffffffff1673ffffffffffffffffffffffffffffffffffffffff16815260200190815260200160002060008773ffffffffffffffffffffffffffffffffffffffff1673ffffffffffffffffffffffffffffffffffffffff1681526020019081526020016000206040518060a001604052803373ffffffffffffffffffffffffffffffffffffffff1681526020018873ffffffffffffffffffffffffffffffffffffffff1681526020018760ff16815260200186815260200142815250908060018154018082558091505060019003906000526020600020906004020160009091909190915060008201518160000160006101000a81548173ffffffffffffffffffffffffffffffffffffffff021916908373ffffffffffffffffffffffffffffffffffffffff16021790555060208201518160010160006101000a81548173ffffffffffffffffffffffffffffffffffffffff021916908373ffffffffffffffffffffffffffffffffffffffff16021790555060408201518160010160146101000a81548160ff021916908360ff1602179055506060820151816002019081610c0b9190611c7c565b5060808201518160030155505060008060008873ffffffffffffffffffffffffffffffffffffffff1673ffffffffffffffffffffffffffffffffffffffff16815260200190815260200160002090508560ff16816002016000828254610c719190611fea565b925050819055506001816003016000828254610c8d9190611fea565b925050819055508673ffffffffffffffffffffffffffffffffffffffff163373ffffffffffffffffffffffffffffffffffffffff167ff679ed47d9d270fdbcc0841fa6aaada363a11452a6629e5a49223b28fc08306588604051610cf1919061201e565b60405180910390a350505050505050565b60026020528260005260406000206020528160005260406000208181548110610d2a57600080fd5b906000526020600020906004020160009250925050508060000160009054906101000a900473ffffffffffffffffffffffffffffffffffffffff16908060010160009054906101000a900473ffffffffffffffffffffffffffffffffffffffff16908060010160149054906101000a900460ff1690806002018054610dae90611a9f565b80601f0160208091040260200160405190810160405280929190818152602001828054610dda90611a9f565b8015610e275780601f10610dfc57610100808354040283529160200191610e27565b820191906000526020600020905b815481529060010190602001808311610e0a57829003601f168201915b5050505050908060030154905085565b6000808273ffffffffffffffffffffffffffffffffffffffff1673ffffffffffffffffffffffffffffffffffffffff16815260200190815260200160002060010160009054906101000a900460ff16610ec5576040517f08c379a0000000000000000000000000000000000000000000000000000000008152600401610ebc90611e57565b60405180910390fd5b600160003373ffffffffffffffffffffffffffffffffffffffff1673ffffffffffffffffffffffffffffffffffffffff16815260200190815260200160002060008273ffffffffffffffffffffffffffffffffffffffff1673ffffffffffffffffffffffffffffffffffffffff16815260200190815260200160002060405180608001604052803373ffffffffffffffffffffffffffffffffffffffff1681526020018373ffffffffffffffffffffffffffffffffffffffff16815260200142815260200160001515815250908060018154018082558091505060019003906000526020600020906004020160009091909190915060008201518160000160006101000a81548173ffffffffffffffffffffffffffffffffffffffff021916908373ffffffffffffffffffffffffffffffffffffffff16021790555060208201518160010160006101000a81548173ffffffffffffffffffffffffffffffffffffffff021916908373ffffffffffffffffffffffffffffffffffffffff1602179055506040820151816002015560608201518160030160006101000a81548160ff02191690831515021790555050508073ffffffffffffffffffffffffffffffffffffffff163373ffffffffffffffffffffffffffffffffffffffff167fd69b48e183c0af1ec1f98229c60a275d54c7a667332e8f410c9bef00ba2f1a8560405160405180910390a350565b60006020528060005260406000206000915090508060000180546110f490611a9f565b80601f016020809104026020016040519081016040528092919081815260200182805461112090611a9f565b801561116d5780601f106111425761010080835404028352916020019161116d565b820191906000526020600020905b81548152906001019060200180831161115057829003601f168201915b5050505050908060010160009054906101000a900460ff16908060020154908060030154905084565b606060008060008060008673ffffffffffffffffffffffffffffffffffffffff1673ffffffffffffffffffffffffffffffffffffffff1681526020019081526020016000206040518060800160405290816000820180546111f690611a9f565b80601f016020809104026020016040519081016040528092919081815260200182805461122290611a9f565b801561126f5780601f106112445761010080835404028352916020019161126f565b820191906000526020600020905b81548152906001019060200180831161125257829003601f168201915b505050505081526020016001820160009054906101000a900460ff16151515158152602001600282015481526020016003820154815250509050806000015181604001518260600151935093509350509193909250565b6000806000808473ffffffffffffffffffffffffffffffffffffffff1673ffffffffffffffffffffffffffffffffffffffff16815260200190815260200160002060405180608001604052908160008201805461132290611a9f565b80601f016020809104026020016040519081016040528092919081815260200182805461134e90611a9f565b801561139b5780601f106113705761010080835404028352916020019161139b565b820191906000526020600020905b81548152906001019060200180831161137e57829003601f168201915b505050505081526020016001820160009054906101000a900460ff1615151515815260200160028201548152602001600382015481525050905060008160600151036113eb576000915050611403565b806060015181604001516113ff9190612068565b9150505b919050565b6000604051905090565b600080fd5b600080fd5b600073ffffffffffffffffffffffffffffffffffffffff82169050919050565b60006114478261141c565b9050919050565b6114578161143c565b811461146257600080fd5b50565b6000813590506114748161144e565b92915050565b6000806040838503121561149157611490611412565b5b600061149f85828601611465565b92505060206114b085828601611465565b9150509250929050565b6000819050919050565b6114cd816114ba565b82525050565b60006020820190506114e860008301846114c4565b92915050565b6114f7816114ba565b811461150257600080fd5b50565b600081359050611514816114ee565b92915050565b60008060006060848603121561153357611532611412565b5b600061154186828701611465565b935050602061155286828701611465565b925050604061156386828701611505565b9150509250925092565b6115768161143c565b82525050565b60008115159050919050565b6115918161157c565b82525050565b60006080820190506115ac600083018761156d565b6115b9602083018661156d565b6115c660408301856114c4565b6115d36060830184611588565b95945050505050565b600080fd5b600080fd5b6000601f19601f8301169050919050565b7f4e487b7100000000000000000000000000000000000000000000000000000000600052604160045260246000fd5b61162f826115e6565b810181811067ffffffffffffffff8211171561164e5761164d6115f7565b5b80604052505050565b6000611661611408565b905061166d8282611626565b919050565b600067ffffffffffffffff82111561168d5761168c6115f7565b5b611696826115e6565b9050602081019050919050565b82818337600083830152505050565b60006116c56116c084611672565b611657565b9050828152602081018484840111156116e1576116e06115e1565b5b6116ec8482856116a3565b509392505050565b600082601f830112611709576117086115dc565b5b81356117198482602086016116b2565b91505092915050565b60006020828403121561173857611737611412565b5b600082013567ffffffffffffffff81111561175657611755611417565b5b611762848285016116f4565b91505092915050565b600060ff82169050919050565b6117818161176b565b82525050565b600081519050919050565b600082825260208201905092915050565b60005b838110156117c15780820151818401526020810190506117a6565b60008484015250505050565b60006117d882611787565b6117e28185611792565b93506117f28185602086016117a3565b6117fb816115e6565b840191505092915050565b600060608201905061181b6000830186611778565b818103602083015261182d81856117cd565b905061183c60408301846114c4565b949350505050565b61184d8161176b565b811461185857600080fd5b50565b60008135905061186a81611844565b92915050565b6000806000806080858703121561188a57611889611412565b5b600061189887828801611465565b94505060206118a98782880161185b565b935050604085013567ffffffffffffffff8111156118ca576118c9611417565b5b6118d6878288016116f4565b92505060606118e787828801611505565b91505092959194509250565b600060a082019050611908600083018861156d565b611915602083018761156d565b6119226040830186611778565b818103606083015261193481856117cd565b905061194360808301846114c4565b9695505050505050565b60006020828403121561196357611962611412565b5b600061197184828501611465565b91505092915050565b6000608082019050818103600083015261199481876117cd565b90506119a36020830186611588565b6119b060408301856114c4565b6119bd60608301846114c4565b95945050505050565b600060608201905081810360008301526119e081866117cd565b90506119ef60208301856114c4565b6119fc60408301846114c4565b949350505050565b7f427573696e65737320616c726561647920726567697374657265640000000000600082015250565b6000611a3a601b83611792565b9150611a4582611a04565b602082019050919050565b60006020820190508181036000830152611a6981611a2d565b9050919050565b7f4e487b7100000000000000000000000000000000000000000000000000000000600052602260045260246000fd5b60006002820490506001821680611ab757607f821691505b602082108103611aca57611ac9611a70565b5b50919050565b60008190508160005260206000209050919050565b60006020601f8301049050919050565b600082821b905092915050565b600060088302611b327fffffffffffffffffffffffffffffffffffffffffffffffffffffffffffffffff82611af5565b611b3c8683611af5565b95508019841693508086168417925050509392505050565b6000819050919050565b6000611b79611b74611b6f846114ba565b611b54565b6114ba565b9050919050565b6000819050919050565b611b9383611b5e565b611ba7611b9f82611b80565b848454611b02565b825550505050565b600090565b611bbc611baf565b611bc7818484611b8a565b505050565b5b81811015611beb57611be0600082611bb4565b600181019050611bcd565b5050565b601f821115611c3057611c0181611ad0565b611c0a84611ae5565b81016020851015611c19578190505b611c2d611c2585611ae5565b830182611bcc565b50505b505050565b600082821c905092915050565b6000611c5360001984600802611c35565b1980831691505092915050565b6000611c6c8383611c42565b9150826002028217905092915050565b611c8582611787565b67ffffffffffffffff811115611c9e57611c9d6115f7565b5b611ca88254611a9f565b611cb3828285611bef565b600060209050601f831160018114611ce65760008415611cd4578287015190505b611cde8582611c60565b865550611d46565b601f198416611cf486611ad0565b60005b82811015611d1c57848901518255600182019150602085019450602081019050611cf7565b86831015611d395784890151611d35601f891682611c42565b8355505b6001600288020188555050505b505050505050565b60006020820190508181036000830152611d6881846117cd565b905092915050565b7f526174696e6720646f6573206e6f742065786973740000000000000000000000600082015250565b6000611da6601583611792565b9150611db182611d70565b602082019050919050565b60006020820190508181036000830152611dd581611d99565b9050919050565b7f4e487b7100000000000000000000000000000000000000000000000000000000600052603260045260246000fd5b7f427573696e657373206e6f742072656769737465726564000000000000000000600082015250565b6000611e41601783611792565b9150611e4c82611e0b565b602082019050919050565b60006020820190508181036000830152611e7081611e34565b9050919050565b7f53636f7265206d757374206265206265747765656e203120616e642035000000600082015250565b6000611ead601d83611792565b9150611eb882611e77565b602082019050919050565b60006020820190508181036000830152611edc81611ea0565b9050919050565b7f5472616e73616374696f6e20646f6573206e6f74206578697374000000000000600082015250565b6000611f19601a83611792565b9150611f2482611ee3565b602082019050919050565b60006020820190508181036000830152611f4881611f0c565b9050919050565b7f5472616e73616374696f6e20616c726561647920726174656400000000000000600082015250565b6000611f85601983611792565b9150611f9082611f4f565b602082019050919050565b60006020820190508181036000830152611fb481611f78565b9050919050565b7f4e487b7100000000000000000000000000000000000000000000000000000000600052601160045260246000fd5b6000611ff5826114ba565b9150612000836114ba565b925082820190508082111561201857612017611fbb565b5b92915050565b60006020820190506120336000830184611778565b92915050565b7f4e487b7100000000000000000000000000000000000000000000000000000000600052601260045260246000fd5b6000612073826114ba565b915061207e836114ba565b92508261208e5761208d612039565b5b82820490509291505056fea26469706673582212207b4ccbc66d1895a02ab19dca7cbb468dce9f9c04f5465f7358e03f6ebe4b6e9c64736f6c63430008130033",
  "linkReferences": {},
  "deployedLinkReferences": {}
}