{
  "_format": "hh-sol-artifact-1",
  "contractName": "MovieTicketBooking",
  "sourceName": "contracts/MovieTicketBooking.sol",
  "abi": [
    {
      "inputs": [
        {
          "internalType": "string",
          "name": "_dishName",
          "type": "string"
        },
        {
          "internalType": "uint256",
          "name": "_dishPrice",
          "type": "uint256"
        },
        {
          "internalType": "uint256",
          "name": "_Inventory",
          "type": "uint256"
        },
        {
          "internalType": "uint256",
          "name": "_CarbonCredits",
          "type": "uint256"
        },
        {
          "internalType": "string",
          "name": "_mainComponent",
          "type": "string"
        },
        {
          "internalType": "string",
          "name": "_SupplySource",
          "type": "string"
        }
      ],
      "stateMutability": "nonpayable",
      "type": "constructor"
    },
    {
      "anonymous": false,
      "inputs": [
        {
          "indexed": false,
          "internalType": "address",
          "name": "buyer",
          "type": "address"
        },
        {
          "indexed": false,
          "internalType": "uint256",
          "name": "numberOfTickets",
          "type": "uint256"
        }
      ],
      "name": "TicketPurchased",
      "type": "event"
    },
    {
      "inputs": [],
      "name": "CarbonCredits",
      "outputs": [
        {
          "internalType": "uint256",
          "name": "",
          "type": "uint256"
        }
      ],
      "stateMutability": "view",
      "type": "function"
    },
    {
      "inputs": [],
      "name": "Inventory",
      "outputs": [
        {
          "internalType": "uint256",
          "name": "",
          "type": "uint256"
        }
      ],
      "stateMutability": "view",
      "type": "function"
    },
    {
      "inputs": [],
      "name": "SupplySource",
      "outputs": [
        {
          "internalType": "string",
          "name": "",
          "type": "string"
        }
      ],
      "stateMutability": "view",
      "type": "function"
    },
    {
      "inputs": [],
      "name": "availableInventory",
      "outputs": [
        {
          "internalType": "uint256",
          "name": "",
          "type": "uint256"
        }
      ],
      "stateMutability": "view",
      "type": "function"
    },
    {
      "inputs": [
        {
          "internalType": "uint256",
          "name": "_numberOfTickets",
          "type": "uint256"
        }
      ],
      "name": "buyTicket",
      "outputs": [],
      "stateMutability": "payable",
      "type": "function"
    },
    {
      "inputs": [],
      "name": "dishName",
      "outputs": [
        {
          "internalType": "string",
          "name": "",
          "type": "string"
        }
      ],
      "stateMutability": "view",
      "type": "function"
    },
    {
      "inputs": [],
      "name": "dishPrice",
      "outputs": [
        {
          "internalType": "uint256",
          "name": "",
          "type": "uint256"
        }
      ],
      "stateMutability": "view",
      "type": "function"
    },
    {
      "inputs": [],
      "name": "getAvailableSeats",
      "outputs": [
        {
          "internalType": "uint256",
          "name": "",
          "type": "uint256"
        }
      ],
      "stateMutability": "view",
      "type": "function"
    },
    {
      "inputs": [
        {
          "internalType": "address",
          "name": "_buyer",
          "type": "address"
        }
      ],
      "name": "getTotalTicketsBought",
      "outputs": [
        {
          "internalType": "uint256",
          "name": "",
          "type": "uint256"
        }
      ],
      "stateMutability": "view",
      "type": "function"
    },
    {
      "inputs": [],
      "name": "mainComponent",
      "outputs": [
        {
          "internalType": "string",
          "name": "",
          "type": "string"
        }
      ],
      "stateMutability": "view",
      "type": "function"
    },
    {
      "inputs": [
        {
          "internalType": "address",
          "name": "",
          "type": "address"
        }
      ],
      "name": "ticketsBought",
      "outputs": [
        {
          "internalType": "uint256",
          "name": "",
          "type": "uint256"
        }
      ],
      "stateMutability": "view",
      "type": "function"
    }
  ],
  "bytecode": "0x60806040523480156200001157600080fd5b506040516200114d3803806200114d833981810160405281019062000037919062000263565b85600090816200004891906200059d565b508460018190555083600281905550836003819055508260048190555081600590816200007691906200059d565b5080600690816200008891906200059d565b5050505050505062000684565b6000604051905090565b600080fd5b600080fd5b600080fd5b600080fd5b6000601f19601f8301169050919050565b7f4e487b7100000000000000000000000000000000000000000000000000000000600052604160045260246000fd5b620000fe82620000b3565b810181811067ffffffffffffffff8211171562000120576200011f620000c4565b5b80604052505050565b60006200013562000095565b9050620001438282620000f3565b919050565b600067ffffffffffffffff821115620001665762000165620000c4565b5b6200017182620000b3565b9050602081019050919050565b60005b838110156200019e57808201518184015260208101905062000181565b60008484015250505050565b6000620001c1620001bb8462000148565b62000129565b905082815260208101848484011115620001e057620001df620000ae565b5b620001ed8482856200017e565b509392505050565b600082601f8301126200020d576200020c620000a9565b5b81516200021f848260208601620001aa565b91505092915050565b6000819050919050565b6200023d8162000228565b81146200024957600080fd5b50565b6000815190506200025d8162000232565b92915050565b60008060008060008060c087890312156200028357620002826200009f565b5b600087015167ffffffffffffffff811115620002a457620002a3620000a4565b5b620002b289828a01620001f5565b9650506020620002c589828a016200024c565b9550506040620002d889828a016200024c565b9450506060620002eb89828a016200024c565b935050608087015167ffffffffffffffff8111156200030f576200030e620000a4565b5b6200031d89828a01620001f5565b92505060a087015167ffffffffffffffff811115620003415762000340620000a4565b5b6200034f89828a01620001f5565b9150509295509295509295565b600081519050919050565b7f4e487b7100000000000000000000000000000000000000000000000000000000600052602260045260246000fd5b60006002820490506001821680620003af57607f821691505b602082108103620003c557620003c462000367565b5b50919050565b60008190508160005260206000209050919050565b60006020601f8301049050919050565b600082821b905092915050565b6000600883026200042f7fffffffffffffffffffffffffffffffffffffffffffffffffffffffffffffffff82620003f0565b6200043b8683620003f0565b95508019841693508086168417925050509392505050565b6000819050919050565b60006200047e62000478620004728462000228565b62000453565b62000228565b9050919050565b6000819050919050565b6200049a836200045d565b620004b2620004a98262000485565b848454620003fd565b825550505050565b600090565b620004c9620004ba565b620004d68184846200048f565b505050565b5b81811015620004fe57620004f2600082620004bf565b600181019050620004dc565b5050565b601f8211156200054d576200051781620003cb565b6200052284620003e0565b8101602085101562000532578190505b6200054a6200054185620003e0565b830182620004db565b50505b505050565b600082821c905092915050565b6000620005726000198460080262000552565b1980831691505092915050565b60006200058d83836200055f565b9150826002028217905092915050565b620005a8826200035c565b67ffffffffffffffff811115620005c457620005c3620000c4565b5b620005d0825462000396565b620005dd82828562000502565b600060209050601f83116001811462000615576000841562000600578287015190505b6200060c85826200057f565b8655506200067c565b601f1984166200062586620003cb565b60005b828110156200064f5784890151825560018201915060208501945060208101905062000628565b868310156200066f57848901516200066b601f8916826200055f565b8355505b6001600288020188555050505b505050505050565b610ab980620006946000396000f3fe60806040526004361061009c5760003560e01c8063906d895d11610064578063906d895d1461017b5780639d04f855146101a6578063a3012910146101d1578063bcbabb1e1461020e578063d203133014610239578063d88f1e90146102645761009c565b806321583ae0146100a157806354579f30146100cc57806367dd74ca146100f75780637086906e1461011357806384bd32641461013e575b600080fd5b3480156100ad57600080fd5b506100b661028f565b6040516100c39190610684565b60405180910390f35b3480156100d857600080fd5b506100e1610295565b6040516100ee9190610684565b60405180910390f35b610111600480360381019061010c91906106d0565b61029b565b005b34801561011f57600080fd5b5061012861044a565b604051610135919061078d565b60405180910390f35b34801561014a57600080fd5b506101656004803603810190610160919061080d565b6104d8565b6040516101729190610684565b60405180910390f35b34801561018757600080fd5b506101906104f0565b60405161019d9190610684565b60405180910390f35b3480156101b257600080fd5b506101bb6104fa565b6040516101c89190610684565b60405180910390f35b3480156101dd57600080fd5b506101f860048036038101906101f3919061080d565b610500565b6040516102059190610684565b60405180910390f35b34801561021a57600080fd5b50610223610549565b6040516102309190610684565b60405180910390f35b34801561024557600080fd5b5061024e61054f565b60405161025b919061078d565b60405180910390f35b34801561027057600080fd5b506102796105dd565b604051610286919061078d565b60405180910390f35b60045481565b60015481565b6003548111156102e0576040517f08c379a00000000000000000000000000000000000000000000000000000000081526004016102d790610886565b60405180910390fd5b806001546102ee91906108d5565b341015610330576040517f08c379a000000000000000000000000000000000000000000000000000000000815260040161032790610963565b60405180910390fd5b80600360008282546103429190610983565b9250508190555080600760003373ffffffffffffffffffffffffffffffffffffffff1673ffffffffffffffffffffffffffffffffffffffff168152602001908152602001600020600082825461039891906109b7565b925050819055507f0668f5b446eb814fe35b3206f43f14bd8567ba04ddaf7a3ee56516929ab22ccb33826040516103d09291906109fa565b60405180910390a16000816001546103e891906108d5565b346103f39190610983565b90506000811115610446573373ffffffffffffffffffffffffffffffffffffffff166108fc829081150290604051600060405180830381858888f19350505050158015610444573d6000803e3d6000fd5b505b5050565b6005805461045790610a52565b80601f016020809104026020016040519081016040528092919081815260200182805461048390610a52565b80156104d05780601f106104a5576101008083540402835291602001916104d0565b820191906000526020600020905b8154815290600101906020018083116104b357829003601f168201915b505050505081565b60076020528060005260406000206000915090505481565b6000600354905090565b60035481565b6000600760008373ffffffffffffffffffffffffffffffffffffffff1673ffffffffffffffffffffffffffffffffffffffff168152602001908152602001600020549050919050565b60025481565b6000805461055c90610a52565b80601f016020809104026020016040519081016040528092919081815260200182805461058890610a52565b80156105d55780601f106105aa576101008083540402835291602001916105d5565b820191906000526020600020905b8154815290600101906020018083116105b857829003601f168201915b505050505081565b600680546105ea90610a52565b80601f016020809104026020016040519081016040528092919081815260200182805461061690610a52565b80156106635780601f1061063857610100808354040283529160200191610663565b820191906000526020600020905b81548152906001019060200180831161064657829003601f168201915b505050505081565b6000819050919050565b61067e8161066b565b82525050565b60006020820190506106996000830184610675565b92915050565b600080fd5b6106ad8161066b565b81146106b857600080fd5b50565b6000813590506106ca816106a4565b92915050565b6000602082840312156106e6576106e561069f565b5b60006106f4848285016106bb565b91505092915050565b600081519050919050565b600082825260208201905092915050565b60005b8381101561073757808201518184015260208101905061071c565b60008484015250505050565b6000601f19601f8301169050919050565b600061075f826106fd565b6107698185610708565b9350610779818560208601610719565b61078281610743565b840191505092915050565b600060208201905081810360008301526107a78184610754565b905092915050565b600073ffffffffffffffffffffffffffffffffffffffff82169050919050565b60006107da826107af565b9050919050565b6107ea816107cf565b81146107f557600080fd5b50565b600081359050610807816107e1565b92915050565b6000602082840312156108235761082261069f565b5b6000610831848285016107f8565b91505092915050565b7f4e6f7420656e6f75676820736561747320617661696c61626c65000000000000600082015250565b6000610870601a83610708565b915061087b8261083a565b602082019050919050565b6000602082019050818103600083015261089f81610863565b9050919050565b7f4e487b7100000000000000000000000000000000000000000000000000000000600052601160045260246000fd5b60006108e08261066b565b91506108eb8361066b565b92508282026108f98161066b565b915082820484148315176109105761090f6108a6565b5b5092915050565b7f496e73756666696369656e742066756e64732073656e74000000000000000000600082015250565b600061094d601783610708565b915061095882610917565b602082019050919050565b6000602082019050818103600083015261097c81610940565b9050919050565b600061098e8261066b565b91506109998361066b565b92508282039050818111156109b1576109b06108a6565b5b92915050565b60006109c28261066b565b91506109cd8361066b565b92508282019050808211156109e5576109e46108a6565b5b92915050565b6109f4816107cf565b82525050565b6000604082019050610a0f60008301856109eb565b610a1c6020830184610675565b9392505050565b7f4e487b7100000000000000000000000000000000000000000000000000000000600052602260045260246000fd5b60006002820490506001821680610a6a57607f821691505b602082108103610a7d57610a7c610a23565b5b5091905056fea2646970667358221220269cfb4abc126f686192569f187fbaa1d1b486cf82ff77a4a7d3da7c3d5787de64736f6c63430008130033",
  "linkReferences": {},
  "deployedLinkReferences": {}
}