{
  "_format": "hh-sol-artifact-1",
  "contractName": "MovieTicketBooking",
  "sourceName": "contracts/MovieTicketBooking.sol",
  "abi": [
    {
      "inputs": [
        {
          "internalType": "string",
          "name": "_movieName",
          "type": "string"
        },
        {
          "internalType": "uint256",
          "name": "_ticketPrice",
          "type": "uint256"
        },
        {
          "internalType": "uint256",
          "name": "_totalSeats",
          "type": "uint256"
        }
      ],
      "stateMutability": "nonpayable",
      "type": "constructor"
    },
    {
      "anonymous": false,
      "inputs": [
        {
          "indexed": false,
          "internalType": "address",
          "name": "buyer",
          "type": "address"
        },
        {
          "indexed": false,
          "internalType": "uint256",
          "name": "numberOfTickets",
          "type": "uint256"
        }
      ],
      "name": "TicketPurchased",
      "type": "event"
    },
    {
      "inputs": [],
      "name": "availableSeats",
      "outputs": [
        {
          "internalType": "uint256",
          "name": "",
          "type": "uint256"
        }
      ],
      "stateMutability": "view",
      "type": "function"
    },
    {
      "inputs": [
        {
          "internalType": "uint256",
          "name": "_numberOfTickets",
          "type": "uint256"
        }
      ],
      "name": "buyTicket",
      "outputs": [],
      "stateMutability": "payable",
      "type": "function"
    },
    {
      "inputs": [],
      "name": "getAvailableSeats",
      "outputs": [
        {
          "internalType": "uint256",
          "name": "",
          "type": "uint256"
        }
      ],
      "stateMutability": "view",
      "type": "function"
    },
    {
      "inputs": [
        {
          "internalType": "address",
          "name": "_buyer",
          "type": "address"
        }
      ],
      "name": "getTotalTicketsBought",
      "outputs": [
        {
          "internalType": "uint256",
          "name": "",
          "type": "uint256"
        }
      ],
      "stateMutability": "view",
      "type": "function"
    },
    {
      "inputs": [],
      "name": "movieName",
      "outputs": [
        {
          "internalType": "string",
          "name": "",
          "type": "string"
        }
      ],
      "stateMutability": "view",
      "type": "function"
    },
    {
      "inputs": [],
      "name": "ticketPrice",
      "outputs": [
        {
          "internalType": "uint256",
          "name": "",
          "type": "uint256"
        }
      ],
      "stateMutability": "view",
      "type": "function"
    },
    {
      "inputs": [
        {
          "internalType": "address",
          "name": "",
          "type": "address"
        }
      ],
      "name": "ticketsBought",
      "outputs": [
        {
          "internalType": "uint256",
          "name": "",
          "type": "uint256"
        }
      ],
      "stateMutability": "view",
      "type": "function"
    },
    {
      "inputs": [],
      "name": "totalSeats",
      "outputs": [
        {
          "internalType": "uint256",
          "name": "",
          "type": "uint256"
        }
      ],
      "stateMutability": "view",
      "type": "function"
    }
  ],
  "bytecode": "0x60806040523480156200001157600080fd5b5060405162000edd38038062000edd833981810160405281019062000037919062000235565b8260009081620000489190620004f1565b50816001819055508060028190555080600381905550505050620005d8565b6000604051905090565b600080fd5b600080fd5b600080fd5b600080fd5b6000601f19601f8301169050919050565b7f4e487b7100000000000000000000000000000000000000000000000000000000600052604160045260246000fd5b620000d08262000085565b810181811067ffffffffffffffff82111715620000f257620000f162000096565b5b80604052505050565b60006200010762000067565b9050620001158282620000c5565b919050565b600067ffffffffffffffff82111562000138576200013762000096565b5b620001438262000085565b9050602081019050919050565b60005b838110156200017057808201518184015260208101905062000153565b60008484015250505050565b6000620001936200018d846200011a565b620000fb565b905082815260208101848484011115620001b257620001b162000080565b5b620001bf84828562000150565b509392505050565b600082601f830112620001df57620001de6200007b565b5b8151620001f18482602086016200017c565b91505092915050565b6000819050919050565b6200020f81620001fa565b81146200021b57600080fd5b50565b6000815190506200022f8162000204565b92915050565b60008060006060848603121562000251576200025062000071565b5b600084015167ffffffffffffffff81111562000272576200027162000076565b5b6200028086828701620001c7565b935050602062000293868287016200021e565b9250506040620002a6868287016200021e565b9150509250925092565b600081519050919050565b7f4e487b7100000000000000000000000000000000000000000000000000000000600052602260045260246000fd5b600060028204905060018216806200030357607f821691505b602082108103620003195762000318620002bb565b5b50919050565b60008190508160005260206000209050919050565b60006020601f8301049050919050565b600082821b905092915050565b600060088302620003837fffffffffffffffffffffffffffffffffffffffffffffffffffffffffffffffff8262000344565b6200038f868362000344565b95508019841693508086168417925050509392505050565b6000819050919050565b6000620003d2620003cc620003c684620001fa565b620003a7565b620001fa565b9050919050565b6000819050919050565b620003ee83620003b1565b62000406620003fd82620003d9565b84845462000351565b825550505050565b600090565b6200041d6200040e565b6200042a818484620003e3565b505050565b5b8181101562000452576200044660008262000413565b60018101905062000430565b5050565b601f821115620004a1576200046b816200031f565b620004768462000334565b8101602085101562000486578190505b6200049e620004958562000334565b8301826200042f565b50505b505050565b600082821c905092915050565b6000620004c660001984600802620004a6565b1980831691505092915050565b6000620004e18383620004b3565b9150826002028217905092915050565b620004fc82620002b0565b67ffffffffffffffff81111562000518576200051762000096565b5b620005248254620002ea565b6200053182828562000456565b600060209050601f83116001811462000569576000841562000554578287015190505b620005608582620004d3565b865550620005d0565b601f19841662000579866200031f565b60005b82811015620005a3578489015182556001820191506020850194506020810190506200057c565b86831015620005c35784890151620005bf601f891682620004b3565b8355505b6001600288020188555050505b505050505050565b6108f580620005e86000396000f3fe60806040526004361061007b5760003560e01c806384bd32641161004e57806384bd32641461011d578063906d895d1461015a5780639cc4254e14610185578063a3012910146101b05761007b565b80631209b1f6146100805780631ffc615e146100ab57806327eef6f3146100d657806367dd74ca14610101575b600080fd5b34801561008c57600080fd5b506100956101ed565b6040516100a291906104c0565b60405180910390f35b3480156100b757600080fd5b506100c06101f3565b6040516100cd91906104c0565b60405180910390f35b3480156100e257600080fd5b506100eb6101f9565b6040516100f8919061056b565b60405180910390f35b61011b600480360381019061011691906105be565b610287565b005b34801561012957600080fd5b50610144600480360381019061013f9190610649565b610436565b60405161015191906104c0565b60405180910390f35b34801561016657600080fd5b5061016f61044e565b60405161017c91906104c0565b60405180910390f35b34801561019157600080fd5b5061019a610458565b6040516101a791906104c0565b60405180910390f35b3480156101bc57600080fd5b506101d760048036038101906101d29190610649565b61045e565b6040516101e491906104c0565b60405180910390f35b60015481565b60025481565b60008054610206906106a5565b80601f0160208091040260200160405190810160405280929190818152602001828054610232906106a5565b801561027f5780601f106102545761010080835404028352916020019161027f565b820191906000526020600020905b81548152906001019060200180831161026257829003601f168201915b505050505081565b6003548111156102cc576040517f08c379a00000000000000000000000000000000000000000000000000000000081526004016102c390610722565b60405180910390fd5b806001546102da9190610771565b34101561031c576040517f08c379a0000000000000000000000000000000000000000000000000000000008152600401610313906107ff565b60405180910390fd5b806003600082825461032e919061081f565b9250508190555080600460003373ffffffffffffffffffffffffffffffffffffffff1673ffffffffffffffffffffffffffffffffffffffff16815260200190815260200160002060008282546103849190610853565b925050819055507f0668f5b446eb814fe35b3206f43f14bd8567ba04ddaf7a3ee56516929ab22ccb33826040516103bc929190610896565b60405180910390a16000816001546103d49190610771565b346103df919061081f565b90506000811115610432573373ffffffffffffffffffffffffffffffffffffffff166108fc829081150290604051600060405180830381858888f19350505050158015610430573d6000803e3d6000fd5b505b5050565b60046020528060005260406000206000915090505481565b6000600354905090565b60035481565b6000600460008373ffffffffffffffffffffffffffffffffffffffff1673ffffffffffffffffffffffffffffffffffffffff168152602001908152602001600020549050919050565b6000819050919050565b6104ba816104a7565b82525050565b60006020820190506104d560008301846104b1565b92915050565b600081519050919050565b600082825260208201905092915050565b60005b838110156105155780820151818401526020810190506104fa565b60008484015250505050565b6000601f19601f8301169050919050565b600061053d826104db565b61054781856104e6565b93506105578185602086016104f7565b61056081610521565b840191505092915050565b600060208201905081810360008301526105858184610532565b905092915050565b600080fd5b61059b816104a7565b81146105a657600080fd5b50565b6000813590506105b881610592565b92915050565b6000602082840312156105d4576105d361058d565b5b60006105e2848285016105a9565b91505092915050565b600073ffffffffffffffffffffffffffffffffffffffff82169050919050565b6000610616826105eb565b9050919050565b6106268161060b565b811461063157600080fd5b50565b6000813590506106438161061d565b92915050565b60006020828403121561065f5761065e61058d565b5b600061066d84828501610634565b91505092915050565b7f4e487b7100000000000000000000000000000000000000000000000000000000600052602260045260246000fd5b600060028204905060018216806106bd57607f821691505b6020821081036106d0576106cf610676565b5b50919050565b7f4e6f7420656e6f75676820736561747320617661696c61626c65000000000000600082015250565b600061070c601a836104e6565b9150610717826106d6565b602082019050919050565b6000602082019050818103600083015261073b816106ff565b9050919050565b7f4e487b7100000000000000000000000000000000000000000000000000000000600052601160045260246000fd5b600061077c826104a7565b9150610787836104a7565b9250828202610795816104a7565b915082820484148315176107ac576107ab610742565b5b5092915050565b7f496e73756666696369656e742066756e64732073656e74000000000000000000600082015250565b60006107e96017836104e6565b91506107f4826107b3565b602082019050919050565b60006020820190508181036000830152610818816107dc565b9050919050565b600061082a826104a7565b9150610835836104a7565b925082820390508181111561084d5761084c610742565b5b92915050565b600061085e826104a7565b9150610869836104a7565b925082820190508082111561088157610880610742565b5b92915050565b6108908161060b565b82525050565b60006040820190506108ab6000830185610887565b6108b860208301846104b1565b939250505056fea26469706673582212200b591bee1b982c55ceeac9df5f2407a3e2bda1159356a2b682fcf760910a6f2c64736f6c63430008130033",
  "linkReferences": {},
  "deployedLinkReferences": {}
}