{
  "_format": "hh-sol-artifact-1",
  "contractName": "GreenDish",
  "sourceName": "contracts/GreenDish.sol",
  "abi": [
    {
      "inputs": [
        {
          "internalType": "string",
          "name": "_dishName",
          "type": "string"
        },
        {
          "internalType": "uint256",
          "name": "_dishPrice",
          "type": "uint256"
        },
        {
          "internalType": "uint256",
          "name": "_Inventory",
          "type": "uint256"
        },
        {
          "internalType": "uint256",
          "name": "_CarbonCredits",
          "type": "uint256"
        },
        {
          "internalType": "string",
          "name": "_mainComponent",
          "type": "string"
        },
        {
          "internalType": "string",
          "name": "_SupplySource",
          "type": "string"
        }
      ],
      "stateMutability": "nonpayable",
      "type": "constructor"
    },
    {
      "anonymous": false,
      "inputs": [
        {
          "indexed": false,
          "internalType": "address",
          "name": "buyer",
          "type": "address"
        },
        {
          "indexed": false,
          "internalType": "uint256",
          "name": "numberOfDishes",
          "type": "uint256"
        }
      ],
      "name": "DishPurchased",
      "type": "event"
    },
    {
      "anonymous": false,
      "inputs": [
        {
          "indexed": false,
          "internalType": "uint256",
          "name": "newInventory",
          "type": "uint256"
        }
      ],
      "name": "InventoryUpdated",
      "type": "event"
    },
    {
      "inputs": [],
      "name": "CarbonCredits",
      "outputs": [
        {
          "internalType": "uint256",
          "name": "",
          "type": "uint256"
        }
      ],
      "stateMutability": "view",
      "type": "function"
    },
    {
      "inputs": [
        {
          "internalType": "address",
          "name": "",
          "type": "address"
        }
      ],
      "name": "DishesBought",
      "outputs": [
        {
          "internalType": "uint256",
          "name": "",
          "type": "uint256"
        }
      ],
      "stateMutability": "view",
      "type": "function"
    },
    {
      "inputs": [],
      "name": "Inventory",
      "outputs": [
        {
          "internalType": "uint256",
          "name": "",
          "type": "uint256"
        }
      ],
      "stateMutability": "view",
      "type": "function"
    },
    {
      "inputs": [],
      "name": "SupplySource",
      "outputs": [
        {
          "internalType": "string",
          "name": "",
          "type": "string"
        }
      ],
      "stateMutability": "view",
      "type": "function"
    },
    {
      "inputs": [],
      "name": "availableInventory",
      "outputs": [
        {
          "internalType": "uint256",
          "name": "",
          "type": "uint256"
        }
      ],
      "stateMutability": "view",
      "type": "function"
    },
    {
      "inputs": [],
      "name": "dishName",
      "outputs": [
        {
          "internalType": "string",
          "name": "",
          "type": "string"
        }
      ],
      "stateMutability": "view",
      "type": "function"
    },
    {
      "inputs": [],
      "name": "dishPrice",
      "outputs": [
        {
          "internalType": "uint256",
          "name": "",
          "type": "uint256"
        }
      ],
      "stateMutability": "view",
      "type": "function"
    },
    {
      "inputs": [],
      "name": "getAvailableSeats",
      "outputs": [
        {
          "internalType": "uint256",
          "name": "",
          "type": "uint256"
        }
      ],
      "stateMutability": "view",
      "type": "function"
    },
    {
      "inputs": [
        {
          "internalType": "address",
          "name": "_buyer",
          "type": "address"
        }
      ],
      "name": "getTotalDishesBought",
      "outputs": [
        {
          "internalType": "uint256",
          "name": "",
          "type": "uint256"
        }
      ],
      "stateMutability": "view",
      "type": "function"
    },
    {
      "inputs": [],
      "name": "hasAvailableInventory",
      "outputs": [
        {
          "internalType": "bool",
          "name": "",
          "type": "bool"
        }
      ],
      "stateMutability": "view",
      "type": "function"
    },
    {
      "inputs": [],
      "name": "mainComponent",
      "outputs": [
        {
          "internalType": "string",
          "name": "",
          "type": "string"
        }
      ],
      "stateMutability": "view",
      "type": "function"
    },
    {
      "inputs": [],
      "name": "owner",
      "outputs": [
        {
          "internalType": "address",
          "name": "",
          "type": "address"
        }
      ],
      "stateMutability": "view",
      "type": "function"
    },
    {
      "inputs": [
        {
          "internalType": "uint256",
          "name": "_numberOfDishes",
          "type": "uint256"
        }
      ],
      "name": "purchaseDish",
      "outputs": [],
      "stateMutability": "payable",
      "type": "function"
    },
    {
      "inputs": [
        {
          "internalType": "uint256",
          "name": "_newInventory",
          "type": "uint256"
        }
      ],
      "name": "updateInventory",
      "outputs": [],
      "stateMutability": "nonpayable",
      "type": "function"
    }
  ],
  "bytecode": "0x60806040523480156200001157600080fd5b5060405162001471380380620014718339818101604052810190620000379190620002a4565b8560009081620000489190620005de565b50846001819055508360028190555083600381905550826004819055508160059081620000769190620005de565b508060069081620000889190620005de565b5033600860006101000a81548173ffffffffffffffffffffffffffffffffffffffff021916908373ffffffffffffffffffffffffffffffffffffffff160217905550505050505050620006c5565b6000604051905090565b600080fd5b600080fd5b600080fd5b600080fd5b6000601f19601f8301169050919050565b7f4e487b7100000000000000000000000000000000000000000000000000000000600052604160045260246000fd5b6200013f82620000f4565b810181811067ffffffffffffffff8211171562000161576200016062000105565b5b80604052505050565b600062000176620000d6565b905062000184828262000134565b919050565b600067ffffffffffffffff821115620001a757620001a662000105565b5b620001b282620000f4565b9050602081019050919050565b60005b83811015620001df578082015181840152602081019050620001c2565b60008484015250505050565b600062000202620001fc8462000189565b6200016a565b905082815260208101848484011115620002215762000220620000ef565b5b6200022e848285620001bf565b509392505050565b600082601f8301126200024e576200024d620000ea565b5b815162000260848260208601620001eb565b91505092915050565b6000819050919050565b6200027e8162000269565b81146200028a57600080fd5b50565b6000815190506200029e8162000273565b92915050565b60008060008060008060c08789031215620002c457620002c3620000e0565b5b600087015167ffffffffffffffff811115620002e557620002e4620000e5565b5b620002f389828a0162000236565b96505060206200030689828a016200028d565b95505060406200031989828a016200028d565b94505060606200032c89828a016200028d565b935050608087015167ffffffffffffffff81111562000350576200034f620000e5565b5b6200035e89828a0162000236565b92505060a087015167ffffffffffffffff811115620003825762000381620000e5565b5b6200039089828a0162000236565b9150509295509295509295565b600081519050919050565b7f4e487b7100000000000000000000000000000000000000000000000000000000600052602260045260246000fd5b60006002820490506001821680620003f057607f821691505b602082108103620004065762000405620003a8565b5b50919050565b60008190508160005260206000209050919050565b60006020601f8301049050919050565b600082821b905092915050565b600060088302620004707fffffffffffffffffffffffffffffffffffffffffffffffffffffffffffffffff8262000431565b6200047c868362000431565b95508019841693508086168417925050509392505050565b6000819050919050565b6000620004bf620004b9620004b38462000269565b62000494565b62000269565b9050919050565b6000819050919050565b620004db836200049e565b620004f3620004ea82620004c6565b8484546200043e565b825550505050565b600090565b6200050a620004fb565b62000517818484620004d0565b505050565b5b818110156200053f576200053360008262000500565b6001810190506200051d565b5050565b601f8211156200058e5762000558816200040c565b620005638462000421565b8101602085101562000573578190505b6200058b620005828562000421565b8301826200051c565b50505b505050565b600082821c905092915050565b6000620005b36000198460080262000593565b1980831691505092915050565b6000620005ce8383620005a0565b9150826002028217905092915050565b620005e9826200039d565b67ffffffffffffffff81111562000605576200060462000105565b5b620006118254620003d7565b6200061e82828562000543565b600060209050601f83116001811462000656576000841562000641578287015190505b6200064d8582620005c0565b865550620006bd565b601f19841662000666866200040c565b60005b82811015620006905784890151825560018201915060208501945060208101905062000669565b86831015620006b05784890151620006ac601f891682620005a0565b8355505b6001600288020188555050505b505050505050565b610d9c80620006d56000396000f3fe6080604052600436106100dd5760003560e01c80638da5cb5b1161007f578063bcbabb1e11610059578063bcbabb1e146102a5578063d2031330146102d0578063d23212f3146102fb578063d88f1e9014610324576100dd565b80638da5cb5b14610224578063906d895d1461024f5780639d04f8551461027a576100dd565b80633495924a116100bb5780633495924a1461018757806354579f30146101a357806367c52775146101ce5780637086906e146101f9576100dd565b806305e7d56b146100e25780630f8110391461011f57806321583ae01461015c575b600080fd5b3480156100ee57600080fd5b50610109600480360381019061010491906108ce565b61034f565b6040516101169190610914565b60405180910390f35b34801561012b57600080fd5b50610146600480360381019061014191906108ce565b610398565b6040516101539190610914565b60405180910390f35b34801561016857600080fd5b506101716103b0565b60405161017e9190610914565b60405180910390f35b6101a1600480360381019061019c919061095b565b6103b6565b005b3480156101af57600080fd5b506101b8610565565b6040516101c59190610914565b60405180910390f35b3480156101da57600080fd5b506101e361056b565b6040516101f091906109a3565b60405180910390f35b34801561020557600080fd5b5061020e610577565b60405161021b9190610a4e565b60405180910390f35b34801561023057600080fd5b50610239610605565b6040516102469190610a7f565b60405180910390f35b34801561025b57600080fd5b5061026461062b565b6040516102719190610914565b60405180910390f35b34801561028657600080fd5b5061028f610635565b60405161029c9190610914565b60405180910390f35b3480156102b157600080fd5b506102ba61063b565b6040516102c79190610914565b60405180910390f35b3480156102dc57600080fd5b506102e5610641565b6040516102f29190610a4e565b60405180910390f35b34801561030757600080fd5b50610322600480360381019061031d919061095b565b6106cf565b005b34801561033057600080fd5b506103396107dd565b6040516103469190610a4e565b60405180910390f35b6000600760008373ffffffffffffffffffffffffffffffffffffffff1673ffffffffffffffffffffffffffffffffffffffff168152602001908152602001600020549050919050565b60076020528060005260406000206000915090505481565b60045481565b6003548111156103fb576040517f08c379a00000000000000000000000000000000000000000000000000000000081526004016103f290610ae6565b60405180910390fd5b806001546104099190610b35565b34101561044b576040517f08c379a000000000000000000000000000000000000000000000000000000000815260040161044290610bc3565b60405180910390fd5b806003600082825461045d9190610be3565b9250508190555080600760003373ffffffffffffffffffffffffffffffffffffffff1673ffffffffffffffffffffffffffffffffffffffff16815260200190815260200160002060008282546104b39190610c17565b925050819055507f8f19ce3a59aaef2d54960bcedcc472d9e32b4abd879c22033b597e0dad7bab4233826040516104eb929190610c4b565b60405180910390a16000816001546105039190610b35565b3461050e9190610be3565b90506000811115610561573373ffffffffffffffffffffffffffffffffffffffff166108fc829081150290604051600060405180830381858888f1935050505015801561055f573d6000803e3d6000fd5b505b5050565b60015481565b60008060035411905090565b6005805461058490610ca3565b80601f01602080910402602001604051908101604052809291908181526020018280546105b090610ca3565b80156105fd5780601f106105d2576101008083540402835291602001916105fd565b820191906000526020600020905b8154815290600101906020018083116105e057829003601f168201915b505050505081565b600860009054906101000a900473ffffffffffffffffffffffffffffffffffffffff1681565b6000600354905090565b60035481565b60025481565b6000805461064e90610ca3565b80601f016020809104026020016040519081016040528092919081815260200182805461067a90610ca3565b80156106c75780601f1061069c576101008083540402835291602001916106c7565b820191906000526020600020905b8154815290600101906020018083116106aa57829003601f168201915b505050505081565b600860009054906101000a900473ffffffffffffffffffffffffffffffffffffffff1673ffffffffffffffffffffffffffffffffffffffff163373ffffffffffffffffffffffffffffffffffffffff161461075f576040517f08c379a000000000000000000000000000000000000000000000000000000000815260040161075690610d46565b60405180910390fd5b60006002548211610771576000610780565b6002548261077f9190610be3565b5b905081600281905550806003600082825461079b9190610c17565b925050819055507f1d087fd5934e28b24a242228fd2dc420d2dfcea0c12a4930944c21c5d307c899826040516107d19190610914565b60405180910390a15050565b600680546107ea90610ca3565b80601f016020809104026020016040519081016040528092919081815260200182805461081690610ca3565b80156108635780601f1061083857610100808354040283529160200191610863565b820191906000526020600020905b81548152906001019060200180831161084657829003601f168201915b505050505081565b600080fd5b600073ffffffffffffffffffffffffffffffffffffffff82169050919050565b600061089b82610870565b9050919050565b6108ab81610890565b81146108b657600080fd5b50565b6000813590506108c8816108a2565b92915050565b6000602082840312156108e4576108e361086b565b5b60006108f2848285016108b9565b91505092915050565b6000819050919050565b61090e816108fb565b82525050565b60006020820190506109296000830184610905565b92915050565b610938816108fb565b811461094357600080fd5b50565b6000813590506109558161092f565b92915050565b6000602082840312156109715761097061086b565b5b600061097f84828501610946565b91505092915050565b60008115159050919050565b61099d81610988565b82525050565b60006020820190506109b86000830184610994565b92915050565b600081519050919050565b600082825260208201905092915050565b60005b838110156109f85780820151818401526020810190506109dd565b60008484015250505050565b6000601f19601f8301169050919050565b6000610a20826109be565b610a2a81856109c9565b9350610a3a8185602086016109da565b610a4381610a04565b840191505092915050565b60006020820190508181036000830152610a688184610a15565b905092915050565b610a7981610890565b82525050565b6000602082019050610a946000830184610a70565b92915050565b7f4e6f7420656e6f7567682064697368657320617661696c61626c650000000000600082015250565b6000610ad0601b836109c9565b9150610adb82610a9a565b602082019050919050565b60006020820190508181036000830152610aff81610ac3565b9050919050565b7f4e487b7100000000000000000000000000000000000000000000000000000000600052601160045260246000fd5b6000610b40826108fb565b9150610b4b836108fb565b9250828202610b59816108fb565b91508282048414831517610b7057610b6f610b06565b5b5092915050565b7f496e73756666696369656e742066756e64732073656e74000000000000000000600082015250565b6000610bad6017836109c9565b9150610bb882610b77565b602082019050919050565b60006020820190508181036000830152610bdc81610ba0565b9050919050565b6000610bee826108fb565b9150610bf9836108fb565b9250828203905081811115610c1157610c10610b06565b5b92915050565b6000610c22826108fb565b9150610c2d836108fb565b9250828201905080821115610c4557610c44610b06565b5b92915050565b6000604082019050610c606000830185610a70565b610c6d6020830184610905565b9392505050565b7f4e487b7100000000000000000000000000000000000000000000000000000000600052602260045260246000fd5b60006002820490506001821680610cbb57607f821691505b602082108103610cce57610ccd610c74565b5b50919050565b7f4f6e6c7920746865206f776e65722063616e2063616c6c20746869732066756e60008201527f6374696f6e000000000000000000000000000000000000000000000000000000602082015250565b6000610d306025836109c9565b9150610d3b82610cd4565b604082019050919050565b60006020820190508181036000830152610d5f81610d23565b905091905056fea2646970667358221220ea6bc3a87354460fd77b7c5b4c667b6c14ee342271c8747a45f7d85c51019a7564736f6c63430008130033",
  "linkReferences": {},
  "deployedLinkReferences": {}
}