{
  "_format": "hh-sol-artifact-1",
  "contractName": "GreenDish",
  "sourceName": "contracts/GreenDish.sol",
  "abi": [
    {
      "inputs": [
        {
          "internalType": "string",
          "name": "_dishName",
          "type": "string"
        },
        {
          "internalType": "uint256",
          "name": "_dishPrice",
          "type": "uint256"
        },
        {
          "internalType": "uint256",
          "name": "_Inventory",
          "type": "uint256"
        },
        {
          "internalType": "uint256",
          "name": "_CarbonCredits",
          "type": "uint256"
        },
        {
          "internalType": "string",
          "name": "_mainComponent",
          "type": "string"
        },
        {
          "internalType": "string",
          "name": "_SupplySource",
          "type": "string"
        }
      ],
      "stateMutability": "nonpayable",
      "type": "constructor"
    },
    {
      "anonymous": false,
      "inputs": [
        {
          "indexed": false,
          "internalType": "address",
          "name": "buyer",
          "type": "address"
        },
        {
          "indexed": false,
          "internalType": "uint256",
          "name": "numberOfDishes",
          "type": "uint256"
        }
      ],
      "name": "DishPurchased",
      "type": "event"
    },
    {
      "anonymous": false,
      "inputs": [
        {
          "indexed": false,
          "internalType": "bool",
          "name": "isActive",
          "type": "bool"
        }
      ],
      "name": "DishStatusChanged",
      "type": "event"
    },
    {
      "anonymous": false,
      "inputs": [
        {
          "indexed": false,
          "internalType": "uint256",
          "name": "newInventory",
          "type": "uint256"
        }
      ],
      "name": "InventoryUpdated",
      "type": "event"
    },
    {
      "inputs": [],
      "name": "CarbonCredits",
      "outputs": [
        {
          "internalType": "uint256",
          "name": "",
          "type": "uint256"
        }
      ],
      "stateMutability": "view",
      "type": "function"
    },
    {
      "inputs": [
        {
          "internalType": "address",
          "name": "",
          "type": "address"
        }
      ],
      "name": "DishesBought",
      "outputs": [
        {
          "internalType": "uint256",
          "name": "",
          "type": "uint256"
        }
      ],
      "stateMutability": "view",
      "type": "function"
    },
    {
      "inputs": [],
      "name": "Inventory",
      "outputs": [
        {
          "internalType": "uint256",
          "name": "",
          "type": "uint256"
        }
      ],
      "stateMutability": "view",
      "type": "function"
    },
    {
      "inputs": [],
      "name": "SupplySource",
      "outputs": [
        {
          "internalType": "string",
          "name": "",
          "type": "string"
        }
      ],
      "stateMutability": "view",
      "type": "function"
    },
    {
      "inputs": [],
      "name": "availableInventory",
      "outputs": [
        {
          "internalType": "uint256",
          "name": "",
          "type": "uint256"
        }
      ],
      "stateMutability": "view",
      "type": "function"
    },
    {
      "inputs": [],
      "name": "dishName",
      "outputs": [
        {
          "internalType": "string",
          "name": "",
          "type": "string"
        }
      ],
      "stateMutability": "view",
      "type": "function"
    },
    {
      "inputs": [],
      "name": "dishPrice",
      "outputs": [
        {
          "internalType": "uint256",
          "name": "",
          "type": "uint256"
        }
      ],
      "stateMutability": "view",
      "type": "function"
    },
    {
      "inputs": [],
      "name": "getAvailableSeats",
      "outputs": [
        {
          "internalType": "uint256",
          "name": "",
          "type": "uint256"
        }
      ],
      "stateMutability": "view",
      "type": "function"
    },
    {
      "inputs": [
        {
          "internalType": "address",
          "name": "_buyer",
          "type": "address"
        }
      ],
      "name": "getTotalDishesBought",
      "outputs": [
        {
          "internalType": "uint256",
          "name": "",
          "type": "uint256"
        }
      ],
      "stateMutability": "view",
      "type": "function"
    },
    {
      "inputs": [],
      "name": "hasAvailableInventory",
      "outputs": [
        {
          "internalType": "bool",
          "name": "",
          "type": "bool"
        }
      ],
      "stateMutability": "view",
      "type": "function"
    },
    {
      "inputs": [],
      "name": "isActive",
      "outputs": [
        {
          "internalType": "bool",
          "name": "",
          "type": "bool"
        }
      ],
      "stateMutability": "view",
      "type": "function"
    },
    {
      "inputs": [],
      "name": "mainComponent",
      "outputs": [
        {
          "internalType": "string",
          "name": "",
          "type": "string"
        }
      ],
      "stateMutability": "view",
      "type": "function"
    },
    {
      "inputs": [],
      "name": "owner",
      "outputs": [
        {
          "internalType": "address",
          "name": "",
          "type": "address"
        }
      ],
      "stateMutability": "view",
      "type": "function"
    },
    {
      "inputs": [
        {
          "internalType": "uint256",
          "name": "_numberOfDishes",
          "type": "uint256"
        }
      ],
      "name": "purchaseDish",
      "outputs": [],
      "stateMutability": "payable",
      "type": "function"
    },
    {
      "inputs": [
        {
          "internalType": "bool",
          "name": "_isActive",
          "type": "bool"
        }
      ],
      "name": "setDishStatus",
      "outputs": [],
      "stateMutability": "nonpayable",
      "type": "function"
    },
    {
      "inputs": [
        {
          "internalType": "uint256",
          "name": "_newInventory",
          "type": "uint256"
        }
      ],
      "name": "updateInventory",
      "outputs": [],
      "stateMutability": "nonpayable",
      "type": "function"
    }
  ],
  "bytecode": "0x60806040523480156200001157600080fd5b5060405162001b0638038062001b06833981810160405281019062000037919062000306565b60648311156200007e576040517f08c379a0000000000000000000000000000000000000000000000000000000008152600401620000759062000486565b60405180910390fd5b85600090816200008f9190620006e9565b50846001819055508360028190555083600381905550826004819055508160059081620000bd9190620006e9565b508060069081620000cf9190620006e9565b5033600860006101000a81548173ffffffffffffffffffffffffffffffffffffffff021916908373ffffffffffffffffffffffffffffffffffffffff1602179055506001600860146101000a81548160ff021916908315150217905550505050505050620007d0565b6000604051905090565b600080fd5b600080fd5b600080fd5b600080fd5b6000601f19601f8301169050919050565b7f4e487b7100000000000000000000000000000000000000000000000000000000600052604160045260246000fd5b620001a18262000156565b810181811067ffffffffffffffff82111715620001c357620001c262000167565b5b80604052505050565b6000620001d862000138565b9050620001e6828262000196565b919050565b600067ffffffffffffffff82111562000209576200020862000167565b5b620002148262000156565b9050602081019050919050565b60005b838110156200024157808201518184015260208101905062000224565b60008484015250505050565b6000620002646200025e84620001eb565b620001cc565b90508281526020810184848401111562000283576200028262000151565b5b6200029084828562000221565b509392505050565b600082601f830112620002b057620002af6200014c565b5b8151620002c28482602086016200024d565b91505092915050565b6000819050919050565b620002e081620002cb565b8114620002ec57600080fd5b50565b6000815190506200030081620002d5565b92915050565b60008060008060008060c0878903121562000326576200032562000142565b5b600087015167ffffffffffffffff81111562000347576200034662000147565b5b6200035589828a0162000298565b96505060206200036889828a01620002ef565b95505060406200037b89828a01620002ef565b94505060606200038e89828a01620002ef565b935050608087015167ffffffffffffffff811115620003b257620003b162000147565b5b620003c089828a0162000298565b92505060a087015167ffffffffffffffff811115620003e457620003e362000147565b5b620003f289828a0162000298565b9150509295509295509295565b600082825260208201905092915050565b7f436172626f6e2063726564697473206d757374206265206265747765656e203060008201527f20616e6420313030000000000000000000000000000000000000000000000000602082015250565b60006200046e602883620003ff565b91506200047b8262000410565b604082019050919050565b60006020820190508181036000830152620004a1816200045f565b9050919050565b600081519050919050565b7f4e487b7100000000000000000000000000000000000000000000000000000000600052602260045260246000fd5b60006002820490506001821680620004fb57607f821691505b602082108103620005115762000510620004b3565b5b50919050565b60008190508160005260206000209050919050565b60006020601f8301049050919050565b600082821b905092915050565b6000600883026200057b7fffffffffffffffffffffffffffffffffffffffffffffffffffffffffffffffff826200053c565b6200058786836200053c565b95508019841693508086168417925050509392505050565b6000819050919050565b6000620005ca620005c4620005be84620002cb565b6200059f565b620002cb565b9050919050565b6000819050919050565b620005e683620005a9565b620005fe620005f582620005d1565b84845462000549565b825550505050565b600090565b6200061562000606565b62000622818484620005db565b505050565b5b818110156200064a576200063e6000826200060b565b60018101905062000628565b5050565b601f8211156200069957620006638162000517565b6200066e846200052c565b810160208510156200067e578190505b620006966200068d856200052c565b83018262000627565b50505b505050565b600082821c905092915050565b6000620006be600019846008026200069e565b1980831691505092915050565b6000620006d98383620006ab565b9150826002028217905092915050565b620006f482620004a8565b67ffffffffffffffff81111562000710576200070f62000167565b5b6200071c8254620004e2565b620007298282856200064e565b600060209050601f8311600181146200076157600084156200074c578287015190505b620007588582620006cb565b865550620007c8565b601f198416620007718662000517565b60005b828110156200079b5784890151825560018201915060208501945060208101905062000774565b86831015620007bb5784890151620007b7601f891682620006ab565b8355505b6001600288020188555050505b505050505050565b61132680620007e06000396000f3fe6080604052600436106100f35760003560e01c80638da5cb5b1161008a578063ce9c1d9e11610059578063ce9c1d9e14610311578063d20313301461033a578063d23212f314610365578063d88f1e901461038e576100f3565b80638da5cb5b14610265578063906d895d146102905780639d04f855146102bb578063bcbabb1e146102e6576100f3565b80633495924a116100c65780633495924a146101c857806354579f30146101e457806367c527751461020f5780637086906e1461023a576100f3565b806305e7d56b146100f85780630f8110391461013557806321583ae01461017257806322f3e2d41461019d575b600080fd5b34801561010457600080fd5b5061011f600480360381019061011a9190610c49565b6103b9565b60405161012c9190610c8f565b60405180910390f35b34801561014157600080fd5b5061015c60048036038101906101579190610c49565b610402565b6040516101699190610c8f565b60405180910390f35b34801561017e57600080fd5b5061018761041a565b6040516101949190610c8f565b60405180910390f35b3480156101a957600080fd5b506101b2610420565b6040516101bf9190610cc5565b60405180910390f35b6101e260048036038101906101dd9190610d0c565b610433565b005b3480156101f057600080fd5b506101f961071f565b6040516102069190610c8f565b60405180910390f35b34801561021b57600080fd5b50610224610725565b6040516102319190610cc5565b60405180910390f35b34801561024657600080fd5b5061024f610749565b60405161025c9190610dc9565b60405180910390f35b34801561027157600080fd5b5061027a6107d7565b6040516102879190610dfa565b60405180910390f35b34801561029c57600080fd5b506102a56107fd565b6040516102b29190610c8f565b60405180910390f35b3480156102c757600080fd5b506102d0610807565b6040516102dd9190610c8f565b60405180910390f35b3480156102f257600080fd5b506102fb61080d565b6040516103089190610c8f565b60405180910390f35b34801561031d57600080fd5b5061033860048036038101906103339190610e41565b610813565b005b34801561034657600080fd5b5061034f610946565b60405161035c9190610dc9565b60405180910390f35b34801561037157600080fd5b5061038c60048036038101906103879190610d0c565b6109d4565b005b34801561039a57600080fd5b506103a3610b58565b6040516103b09190610dc9565b60405180910390f35b6000600760008373ffffffffffffffffffffffffffffffffffffffff1673ffffffffffffffffffffffffffffffffffffffff168152602001908152602001600020549050919050565b60076020528060005260406000206000915090505481565b60045481565b600860149054906101000a900460ff1681565b600860009054906101000a900473ffffffffffffffffffffffffffffffffffffffff1673ffffffffffffffffffffffffffffffffffffffff163373ffffffffffffffffffffffffffffffffffffffff16036104c3576040517f08c379a00000000000000000000000000000000000000000000000000000000081526004016104ba90610ee0565b60405180910390fd5b600860149054906101000a900460ff16610512576040517f08c379a000000000000000000000000000000000000000000000000000000000815260040161050990610f72565b60405180910390fd5b600354811115610557576040517f08c379a000000000000000000000000000000000000000000000000000000000815260040161054e90610fde565b60405180910390fd5b80600154610565919061102d565b3410156105a7576040517f08c379a000000000000000000000000000000000000000000000000000000000815260040161059e906110bb565b60405180910390fd5b80600360008282546105b991906110db565b9250508190555080600760003373ffffffffffffffffffffffffffffffffffffffff1673ffffffffffffffffffffffffffffffffffffffff168152602001908152602001600020600082825461060f919061110f565b92505081905550600060035403610674576000600860146101000a81548160ff0219169083151502179055507fd515cc08d228b8b2711f2df6aaf7a0ddc87260b910da7f6334fd16c730b3322d600060405161066b9190610cc5565b60405180910390a15b7f8f19ce3a59aaef2d54960bcedcc472d9e32b4abd879c22033b597e0dad7bab4233826040516106a5929190611143565b60405180910390a16000816001546106bd919061102d565b346106c891906110db565b9050600081111561071b573373ffffffffffffffffffffffffffffffffffffffff166108fc829081150290604051600060405180830381858888f19350505050158015610719573d6000803e3d6000fd5b505b5050565b60015481565b6000806003541180156107445750600860149054906101000a900460ff165b905090565b600580546107569061119b565b80601f01602080910402602001604051908101604052809291908181526020018280546107829061119b565b80156107cf5780601f106107a4576101008083540402835291602001916107cf565b820191906000526020600020905b8154815290600101906020018083116107b257829003601f168201915b505050505081565b600860009054906101000a900473ffffffffffffffffffffffffffffffffffffffff1681565b6000600354905090565b60035481565b60025481565b600860009054906101000a900473ffffffffffffffffffffffffffffffffffffffff1673ffffffffffffffffffffffffffffffffffffffff163373ffffffffffffffffffffffffffffffffffffffff16146108a3576040517f08c379a000000000000000000000000000000000000000000000000000000000815260040161089a9061123e565b60405180910390fd5b8080156108b257506000600354145b156108f2576040517f08c379a00000000000000000000000000000000000000000000000000000000081526004016108e9906112d0565b60405180910390fd5b80600860146101000a81548160ff0219169083151502179055507fd515cc08d228b8b2711f2df6aaf7a0ddc87260b910da7f6334fd16c730b3322d8160405161093b9190610cc5565b60405180910390a150565b600080546109539061119b565b80601f016020809104026020016040519081016040528092919081815260200182805461097f9061119b565b80156109cc5780601f106109a1576101008083540402835291602001916109cc565b820191906000526020600020905b8154815290600101906020018083116109af57829003601f168201915b505050505081565b600860009054906101000a900473ffffffffffffffffffffffffffffffffffffffff1673ffffffffffffffffffffffffffffffffffffffff163373ffffffffffffffffffffffffffffffffffffffff1614610a64576040517f08c379a0000000000000000000000000000000000000000000000000000000008152600401610a5b9061123e565b60405180910390fd5b60006002548211610a76576000610a85565b60025482610a8491906110db565b5b9050816002819055508060036000828254610aa0919061110f565b92505081905550600081118015610ac45750600860149054906101000a900460ff16155b15610b1d576001600860146101000a81548160ff0219169083151502179055507fd515cc08d228b8b2711f2df6aaf7a0ddc87260b910da7f6334fd16c730b3322d6001604051610b149190610cc5565b60405180910390a15b7f1d087fd5934e28b24a242228fd2dc420d2dfcea0c12a4930944c21c5d307c89982604051610b4c9190610c8f565b60405180910390a15050565b60068054610b659061119b565b80601f0160208091040260200160405190810160405280929190818152602001828054610b919061119b565b8015610bde5780601f10610bb357610100808354040283529160200191610bde565b820191906000526020600020905b815481529060010190602001808311610bc157829003601f168201915b505050505081565b600080fd5b600073ffffffffffffffffffffffffffffffffffffffff82169050919050565b6000610c1682610beb565b9050919050565b610c2681610c0b565b8114610c3157600080fd5b50565b600081359050610c4381610c1d565b92915050565b600060208284031215610c5f57610c5e610be6565b5b6000610c6d84828501610c34565b91505092915050565b6000819050919050565b610c8981610c76565b82525050565b6000602082019050610ca46000830184610c80565b92915050565b60008115159050919050565b610cbf81610caa565b82525050565b6000602082019050610cda6000830184610cb6565b92915050565b610ce981610c76565b8114610cf457600080fd5b50565b600081359050610d0681610ce0565b92915050565b600060208284031215610d2257610d21610be6565b5b6000610d3084828501610cf7565b91505092915050565b600081519050919050565b600082825260208201905092915050565b60005b83811015610d73578082015181840152602081019050610d58565b60008484015250505050565b6000601f19601f8301169050919050565b6000610d9b82610d39565b610da58185610d44565b9350610db5818560208601610d55565b610dbe81610d7f565b840191505092915050565b60006020820190508181036000830152610de38184610d90565b905092915050565b610df481610c0b565b82525050565b6000602082019050610e0f6000830184610deb565b92915050565b610e1e81610caa565b8114610e2957600080fd5b50565b600081359050610e3b81610e15565b92915050565b600060208284031215610e5757610e56610be6565b5b6000610e6584828501610e2c565b91505092915050565b7f4f776e65722063616e6e6f74207075726368617365207468656972206f776e2060008201527f6469736865730000000000000000000000000000000000000000000000000000602082015250565b6000610eca602683610d44565b9150610ed582610e6e565b604082019050919050565b60006020820190508181036000830152610ef981610ebd565b9050919050565b7f5468697320646973682069732063757272656e746c7920756e617661696c616260008201527f6c65000000000000000000000000000000000000000000000000000000000000602082015250565b6000610f5c602283610d44565b9150610f6782610f00565b604082019050919050565b60006020820190508181036000830152610f8b81610f4f565b9050919050565b7f4e6f7420656e6f7567682064697368657320617661696c61626c650000000000600082015250565b6000610fc8601b83610d44565b9150610fd382610f92565b602082019050919050565b60006020820190508181036000830152610ff781610fbb565b9050919050565b7f4e487b7100000000000000000000000000000000000000000000000000000000600052601160045260246000fd5b600061103882610c76565b915061104383610c76565b925082820261105181610c76565b9150828204841483151761106857611067610ffe565b5b5092915050565b7f496e73756666696369656e742066756e64732073656e74000000000000000000600082015250565b60006110a5601783610d44565b91506110b08261106f565b602082019050919050565b600060208201905081810360008301526110d481611098565b9050919050565b60006110e682610c76565b91506110f183610c76565b925082820390508181111561110957611108610ffe565b5b92915050565b600061111a82610c76565b915061112583610c76565b925082820190508082111561113d5761113c610ffe565b5b92915050565b60006040820190506111586000830185610deb565b6111656020830184610c80565b9392505050565b7f4e487b7100000000000000000000000000000000000000000000000000000000600052602260045260246000fd5b600060028204905060018216806111b357607f821691505b6020821081036111c6576111c561116c565b5b50919050565b7f4f6e6c7920746865206f776e65722063616e2063616c6c20746869732066756e60008201527f6374696f6e000000000000000000000000000000000000000000000000000000602082015250565b6000611228602583610d44565b9150611233826111cc565b604082019050919050565b600060208201905081810360008301526112578161121b565b9050919050565b7f43616e6e6f7420736574206469736820746f20616374697665207768656e206960008201527f6e76656e746f7279206973207a65726f00000000000000000000000000000000602082015250565b60006112ba603083610d44565b91506112c58261125e565b604082019050919050565b600060208201905081810360008301526112e9816112ad565b905091905056fea2646970667358221220ac68f52a9cdec9947daa637e9fe9adf21fa1fe7ce104de3030738559f749e50964736f6c63430008130033",
  "linkReferences": {},
  "deployedLinkReferences": {}
}